{
  "_format": "hh-sol-artifact-1",
  "contractName": "WhitelistRegistry",
  "sourceName": "contracts/WhitelistRegistry.sol",
  "abi": [
    {
      "inputs": [
        {
          "internalType": "address",
          "name": "_verifier",
          "type": "address"
        }
      ],
      "stateMutability": "nonpayable",
      "type": "constructor"
    },
    {
      "anonymous": false,
      "inputs": [
        {
          "indexed": true,
          "internalType": "uint256",
          "name": "eventId",
          "type": "uint256"
        },
        {
          "indexed": false,
          "internalType": "uint256",
          "name": "nullifier",
          "type": "uint256"
        },
        {
          "indexed": false,
          "internalType": "uint256",
          "name": "commitment",
          "type": "uint256"
        },
        {
          "indexed": false,
          "internalType": "uint256",
          "name": "timestamp",
          "type": "uint256"
        }
      ],
      "name": "ApprovalVerified",
      "type": "event"
    },
    {
      "anonymous": false,
      "inputs": [
        {
          "indexed": false,
          "internalType": "address",
          "name": "oldVerifier",
          "type": "address"
        },
        {
          "indexed": false,
          "internalType": "address",
          "name": "newVerifier",
          "type": "address"
        }
      ],
      "name": "VerifierUpdated",
      "type": "event"
    },
    {
      "inputs": [],
      "name": "admin",
      "outputs": [
        {
          "internalType": "address",
          "name": "",
          "type": "address"
        }
      ],
      "stateMutability": "view",
      "type": "function"
    },
    {
      "inputs": [
        {
          "internalType": "uint256",
          "name": "",
          "type": "uint256"
        },
        {
          "internalType": "uint256",
          "name": "",
          "type": "uint256"
        }
      ],
      "name": "commitments",
      "outputs": [
        {
          "internalType": "bool",
          "name": "",
          "type": "bool"
        }
      ],
      "stateMutability": "view",
      "type": "function"
    },
    {
      "inputs": [
        {
          "internalType": "uint256",
          "name": "",
          "type": "uint256"
        }
      ],
      "name": "eventVerifiedCount",
      "outputs": [
        {
          "internalType": "uint256",
          "name": "",
          "type": "uint256"
        }
      ],
      "stateMutability": "view",
      "type": "function"
    },
    {
      "inputs": [
        {
          "internalType": "uint256",
          "name": "_eventId",
          "type": "uint256"
        }
      ],
      "name": "getVerifiedCount",
      "outputs": [
        {
          "internalType": "uint256",
          "name": "",
          "type": "uint256"
        }
      ],
      "stateMutability": "view",
      "type": "function"
    },
    {
      "inputs": [
        {
          "internalType": "uint256",
          "name": "_eventId",
          "type": "uint256"
        },
        {
          "internalType": "uint256",
          "name": "_commitment",
          "type": "uint256"
        }
      ],
      "name": "hasCommitment",
      "outputs": [
        {
          "internalType": "bool",
          "name": "",
          "type": "bool"
        }
      ],
      "stateMutability": "view",
      "type": "function"
    },
    {
      "inputs": [
        {
          "internalType": "uint256",
          "name": "_eventId",
          "type": "uint256"
        },
        {
          "internalType": "uint256",
          "name": "_nullifier",
          "type": "uint256"
        }
      ],
      "name": "isNullifierUsed",
      "outputs": [
        {
          "internalType": "bool",
          "name": "",
          "type": "bool"
        }
      ],
      "stateMutability": "view",
      "type": "function"
    },
    {
      "inputs": [
        {
          "internalType": "address",
          "name": "_newAdmin",
          "type": "address"
        }
      ],
      "name": "transferAdmin",
      "outputs": [],
      "stateMutability": "nonpayable",
      "type": "function"
    },
    {
      "inputs": [
        {
          "internalType": "address",
          "name": "_newVerifier",
          "type": "address"
        }
      ],
      "name": "updateVerifier",
      "outputs": [],
      "stateMutability": "nonpayable",
      "type": "function"
    },
    {
      "inputs": [
        {
          "internalType": "uint256",
          "name": "",
          "type": "uint256"
        },
        {
          "internalType": "uint256",
          "name": "",
          "type": "uint256"
        }
      ],
      "name": "verifiedApprovals",
      "outputs": [
        {
          "internalType": "bool",
          "name": "",
          "type": "bool"
        }
      ],
      "stateMutability": "view",
      "type": "function"
    },
    {
      "inputs": [],
      "name": "verifier",
      "outputs": [
        {
          "internalType": "contract IGroth16Verifier",
          "name": "",
          "type": "address"
        }
      ],
      "stateMutability": "view",
      "type": "function"
    },
    {
      "inputs": [
        {
          "internalType": "uint256[2]",
          "name": "_pA",
          "type": "uint256[2]"
        },
        {
          "internalType": "uint256[2][2]",
          "name": "_pB",
          "type": "uint256[2][2]"
        },
        {
          "internalType": "uint256[2]",
          "name": "_pC",
          "type": "uint256[2]"
        },
        {
          "internalType": "uint256[4]",
          "name": "_pubSignals",
          "type": "uint256[4]"
        }
      ],
      "name": "verifyAndRegister",
      "outputs": [
        {
          "internalType": "bool",
          "name": "",
          "type": "bool"
        }
      ],
      "stateMutability": "nonpayable",
      "type": "function"
    }
  ],
  "bytecode": "0x608060405234801561001057600080fd5b506040516107fc3803806107fc83398101604081905261002f9161005d565b600080546001600160a01b039092166001600160a01b0319928316179055600180549091163317905561008d565b60006020828403121561006f57600080fd5b81516001600160a01b038116811461008657600080fd5b9392505050565b6107608061009c6000396000f3fe608060405234801561001057600080fd5b50600436106100a95760003560e01c806388a78d9e1161007157806388a78d9e14610157578063940bcaea146101855780639783de0b146101b357806397fc007c146101d3578063d13e2e60146101e6578063f851a4401461021457600080fd5b80632b7ac3f3146100ae5780634db5555b146100de5780635b7ce6d01461010157806375829def1461011457806385c7429614610129575b600080fd5b6000546100c1906001600160a01b031681565b6040516001600160a01b0390911681526020015b60405180910390f35b6100f16100ec3660046105d0565b610227565b60405190151581526020016100d5565b6100f161010f36600461062a565b61040f565b61012761012236600461064c565b610433565b005b6100f161013736600461062a565b600091825260026020908152604080842092845291905290205460ff1690565b61017761016536600461067c565b60009081526004602052604090205490565b6040519081526020016100d5565b6100f161019336600461062a565b600260209081526000928352604080842090915290825290205460ff1681565b6101776101c136600461067c565b60046020526000908152604090205481565b6101276101e136600461064c565b6104f8565b6100f16101f436600461062a565b600360209081526000928352604080842090915290825290205460ff1681565b6001546100c1906001600160a01b031681565b604080820135600081815260026020908152838220818601358084529152928120549092843592909160ff16156102a55760405162461bcd60e51b815260206004820152601960248201527f417070726f76616c20616c72656164792076657269666965640000000000000060448201526064015b60405180910390fd5b60008054604051635fe8c13b60e01b81526001600160a01b0390911690635fe8c13b906102dc908c908c908c908c90600401610695565b602060405180830381865afa1580156102f9573d6000803e3d6000fd5b505050506040513d601f19601f8201168201806040525081019061031d91906106e1565b90508061035f5760405162461bcd60e51b815260206004820152601060248201526f24b73b30b634b2102d2590383937b7b360811b604482015260640161029c565b600082815260026020908152604080832086845282528083208054600160ff19918216811790925586855260038452828520898652845282852080549091169091179055848352600490915281208054916103b983610703565b909155505060408051848152602081018690524281830152905183917f608f15fad1cebd574842344775c4e4ab7aa8ffe8bd2fe176659c50eef97db31e919081900360600190a250600198975050505050505050565b600082815260036020908152604080832084845290915290205460ff165b92915050565b6001546001600160a01b031633146104885760405162461bcd60e51b81526020600482015260186024820152774f6e6c792061646d696e2063616e2063616c6c207468697360401b604482015260640161029c565b6001600160a01b0381166104d65760405162461bcd60e51b8152602060048201526015602482015274496e76616c69642061646d696e206164647265737360581b604482015260640161029c565b600180546001600160a01b0319166001600160a01b0392909216919091179055565b6001546001600160a01b0316331461054d5760405162461bcd60e51b81526020600482015260186024820152774f6e6c792061646d696e2063616e2063616c6c207468697360401b604482015260640161029c565b600080546001600160a01b038381166001600160a01b031983168117909355604080519190921680825260208201939093527f0243549a92b2412f7a3caf7a2e56d65b8821b91345363faa5f57195384065fcc910160405180910390a15050565b806040810183101561042d57600080fd5b806080810183101561042d57600080fd5b60008060008061018085870312156105e757600080fd5b6105f186866105ae565b935061060086604087016105bf565b925061060f8660c087016105ae565b915061061f8661010087016105bf565b905092959194509250565b6000806040838503121561063d57600080fd5b50508035926020909101359150565b60006020828403121561065e57600080fd5b81356001600160a01b038116811461067557600080fd5b9392505050565b60006020828403121561068e57600080fd5b5035919050565b61018081016040808784378083018660005b60028110156106c4578382843791830191908301906001016106a7565b505050808560c08501375060808361010084013795945050505050565b6000602082840312156106f357600080fd5b8151801515811461067557600080fd5b60006001820161072357634e487b7160e01b600052601160045260246000fd5b506001019056fea2646970667358221220b51d135762120738063b98002ef5d31b9f95ebdab338c7bf70c08e94883be75a64736f6c63430008140033",
  "linkReferences": {},
  "deployedLinkReferences": {}
}